:020000020000FC
:1000000030CE8ECCC2C518951895189518951895B0
:100010001895189518951895189518951895189578
:100020001895189518951895189518951895189568
:100030001895189512010101FF0000089E0A11EDA4
:1000400000010102000109021200010100801909EA
:10005000040000000000000004030904180361000C
:10006000670073006D002E00730066002E006E00A6
:10007000650074002C03550053004200200053001B
:100080006D00610072007400200043006100720086
:100090006400200052006500610064006500720089
:1000A0002A01CD030000A9002403441E5CDEA897AA
:1000B000280156D000E050D0008301968832900786
:1000C000CCF34ED0A0E0B0E0F2013FD029F033D025
:1000D0004CE453E08E0147D029D0B4F3019684312B
:1000E000900784F33DD0A0E0B0E0FE012ED029F0CF
:1000F00022D048E353E08E0136D018D0B4F30196F5
:100100008431900784F32CD027D00489FC01EC5D66
:10011000FC4F10811027F20120D01083019684310A
:1001200000E090078CF3A896E6E02ECE1196A8305A
:1001300000E0B00708952FE930E08C0143E0C2DD14
:10014000201B310B2A1B3B0B089507D0008110E0C8
:100150004A2FB8DD00780895FE01E80FF91F0895D1
:1001600080E090E0089501DE6597D80145D2FA015C
:10017000E60FF71F008141D044D0CCF30C8B39D06F
:10018000C80137D09A01042F052BB9F0112434D2BD
:10019000512D33D00081102E48E0421B8EDD002E01
:1001A000052F10E0422F8EDD002900836F5F7F4F07
:1001B000653100E0700764F301961ED21ED04081C5
:1001C0008B010C5E1F4F081B190B2DD000810427DB
:1001D00018D0A4F3232B51F00C8991958195904070
:1001E000A80FB91FFD0110A5102710A76596E4E020
:1001F000CDCD890148E050E089CDFE01E60FF71F23
:10020000089500836F5F7F4F643100E070070895A9
:100210003081322730830F5F1F4F00316CC00F5F7A
:100220001F4F083068C0FD0101C0FF4FE00FF11FF4
:10023000089592DD02D0A1CDFCCFE0D04801C22EBE
:100240005A013B01FE01E755D0D0E55520D1FE0112
:10025000E355FF4F408051808E01005C1F4F5AD004
:10026000F401BDD150D023272083D5DFCCF353D068
:100270003CE557D030830F5F1F4F00341207C4F3A3
:100280004AD0F301ACD14DD024852327248730D028
:10029000C4F341D0F50142D030893227308BBBDF27
:1002A000CCF339D0FD013AD032A1322732A39BD111
:1002B000CCF331D0FC0132D032A5322732A70F5F08
:1002C0001F4F023020E01207ACF30B850C250B8783
:1002D00009D098D020D017D011D0A1DFE4F38AD074
:1002E000E3E1089512E02A932A931A932A9308953A
:1002F0000F5F1F4F043020E012070895F201E00F56
:10030000F11F20830895FE01E05CFF4FE00FF11F15
:10031000208108957AD700E010E00895E00FF11FE2
:100320002081FE0183CF19DD69D05801922E3A0158
:100330002B01FE01E85559D0E655A9D0813000E0E7
:1003400090070CF44FC08131900714F080E190E0E9
:1003500088248DD0F501E20FF31F108166D0008153
:1003600001270083BCD0B4F37FD01CE59DD010835F
:10037000ABD020343007CCF377D0F20152D00485D3
:1003800001270487A1D02430ACD0BCF36DD0F30199
:1003900048D0008D0127008FA2D0CCF30B81082517
:1003A0000B830B8509250B870B8908250B8B0BA16C
:1003B00008250BA30BA90825C0D024D055D035D0D3
:1003C0005081082DB2D02FDF50830197082F092BC1
:1003D00049F07AD0283085D094F3839402E08016D7
:1003E00008F4B7CF07D0E0E1C9CCFF4FA081B181BD
:1003F000FE010895EF96EF966E960895EF97EF97AA
:100400006E97089540E050E060E070E09E012C5F40
:100410003F4F8E010C5B1F4F23D78E01005C1F4F97
:1004200045CEE20FF31F10813FC0FE01E05CFF4F9D
:10043000E20FF31F089593DC20D019D048D0F4F3D5
:1004400013D034D04ED0ECF30FD036D04AD0ECF3EA
:100450000BD021D044D0ECF347D078F302D090CC2D
:10046000EACFC8DFECE0089520E030E0089501D045
:10047000FBCF8E01005C1F4FC8C6C0DF4801722E43
:100480002A01DB01FE01EA5502D066240895FF4FE0
:10049000808191810895F20104D0108D1027108F72
:1004A0000895E20FF31F0081FE01C2CF0CE5FCDFCF
:1004B00000830AD020340895FD01F3DF148510274E
:1004C000148702D0243008952F5F3F4F0895F40120
:1004D000E20FF31F0081A9DF108110271083F4DFE2
:1004E000203100E0300708950B8106250B830B8532
:1004F00007250B870B8906250B8B0BA106250BA364
:100500000BA906251AD07EDF20E030E08EDF508177
:10051000062D0BD010D05083D7DF283000E03007F5
:10052000ACF3639402E06016089510E043E0CADB88
:10053000020F131F0895FC0179CE0BAB00E012E00F
:100540000A930A931A930A9308950ADC02D019CCED
:10055000FCCF54DF2801822E3A01DB01FE01EB556E
:1005600096DF8E01D7DEF201D9DE52DEE4F3D3DE70
:100570002CE5FE01E45A59DE3AD0D4F3CCDEFD017D
:100580002AD0E859FF4F2BD032273083B1DEBCF39D
:10059000C2DEF30120D0E45948DE3ADED4F3FE0196
:1005A000FF9600A5082500A79DDE40E050E024D07E
:1005B0009E01205A3F4F8E010C5F1F4F51D68E0176
:1005C00075DDA9DEAEDE2081B6DF20830CD0D4F34A
:1005D00011DFEBE00895E00FF11F208109CFE00F5C
:1005E000F11F308108950F5F1F4F063084CE2083A6
:1005F0000F5F1F4F00347FCE60E070E00895B5DBE1
:10060000D7D1ADECB3E08D01085F1F4FE5D1802F4E
:1006100090E0089616968D939C93139710916B0318
:100620001C931091DC041E932D9A085F44C05698C9
:10063000249806B1037E08B92D98EDECF3E028D09C
:10064000038308E0089591DBADECB3E0AD01485FB2
:100650005F4F16962D913C9117978D01085F1F4FA4
:1006600021D216960D931C93139720916B032C9314
:100670002091DC042E93085F1F4F1DC0EDECF3E0CA
:100680004B9B02C001E001C002E0038301D0D9CF3F
:1006900000E0068307830483089567DBE0E6F3E068
:1006A000A5EDB3E01D9111930A95E1F70091600368
:1006B00007BD85D200E0E4E069CB57DBE0E6F3E07C
:1006C0000DEC13E0D80118964BE64056242F02C0DB
:1006D00031913D93342F4A953323D1F730E0F8011F
:1006E0002683378330916B0334833091DC0433836A
:1006F000285F022FE0CF39DB980140E050E0F8019D
:1007000086819781018140936B034093DC04ADECBB
:10071000B3E0FD010183F9011281FD01128302366C
:1007200021F46DDF402F50E044C0033611F47FDF29
:10073000F9CF0F3639F449D0FD018683978340D035
:100740000FE633C0003721F50091E1040F36C9F4FC
:10075000EDEDF4E000811181EFEDF4E020813181D5
:100760000217130731F503B105FF2D9A05FD2D98EA
:10077000F89469DFA801E09A789400E70093E10417
:1007800018C00037B1F446815781485F5F4F11C0F0
:10079000053611F473DFC6CF0C3611F48EDFC2CFED
:1007A000013629F412D00CD001E60093E1044FEF9A
:1007B0005FEF8417950714F48C0101C08A017BCF89
:1007C000EFEDF4E0408341830895EDEDF4E08083A4
:1007D00091830895CADA02E010E0ADECB3E0199617
:1007E0002C911997283819F51B962C911B972138B5
:1007F000F1F41C962C911C97223299F442E250E0BD
:100800009D01235F3F4F8D0100531F4FE5DAAD017E
:10081000485F5F4F22E28D0100531F4F52D610E018
:100820000BC02CE618962D9322E22C9304C02DE6E3
:1008300018962D931C93199716960D931C93139746
:1008400020E02C932E93085F1F4FE4E09FCA8DDABF
:10085000D80100E010E0FD01868197812181EDEC57
:10086000F3E0218312963C913283223679F40BE334
:10087000008702E000870AE000870EE900870CE0AD
:1008800006831783148313832D9A3FC0233619F4EC
:100890002D9808E011C02F36A1F4ADEDB4E08D9392
:1008A0009C9386839783EFEDF4E0008301830FE64A
:1008B0000093E1040FEF1FEF8017910724F59C01CF
:1008C00023C02037B9F72091E1042F36A9F4EDEDCC
:1008D000F4E020813181EFEDF4E040815181241773
:1008E000350751F703B105FF2D9A05FD2D9872DFED
:1008F00020E72093E104E0CF2037F1F6068117814D
:10090000085F1F4FD9CF980189019FCF2EDAD801F8
:10091000822F082F8A95002341F0ACD10D930091CE
:10092000DC040023B1F301E001C000E0E4E02ECAE2
:100930001BDAD801832F922F06C0F19B04C0A7D0E9
:10094000081709F4F198092F9A95002339F04D9072
:10095000042D4CD1041589F301E001C000E0E5E06D
:1009600014CA1093850000938400089500E000935A
:100970006603259A00916900086000936900009160
:1009800069000B7F00936900E99A2C9A07B10C610A
:1009900007B95698249800E00093800007D100E042
:1009A00005BD01E007BD02E404BD01E005BD0895F9
:1009B00000E00EBB06B10C6108B9569A249A2C9837
:1009C00000E21AE3CEDFB19AEDD0B19BFECFEED0BC
:1009D000F6D0B19A2C9A0895C6D9D80190E08091AA
:1009E00064039093640346D1202F80936403033003
:1009F00081F4F09A02E0402E2C933CD1FD0101835A
:100A0000202FF09B02C092D1202F522E0FE05022B7
:100A100020C00B3379F300E02FC030D0322F36FBEB
:100A200030E030F9340F822F880F80E0881F830F69
:100A3000282F6CDF480E10E0FD01E40DF11F22911C
:100A4000F09B03C0022F72D1202F022F0F7009F0EC
:100A500091E050E08D01040D151F27FB322FEEF2BF
:100A60000DD0822F86FB80E080F9840F850D890FE1
:100A7000282F4CDF840D082FE6E086C934FB30E0D8
:100A800030F9422F45FB40E040F9430F08958A9327
:100A9000F09B02C089EF01C080E6ECD00817E9F3B3
:100AA0008991089560D9D801C9012A010C910F3F9D
:100AB00049F430E060D009F04DC04FD009F04AC091
:100AC0008C014AC0253000E0900701F552D009F0B2
:100AD00041C0DDDFFD011181011731F04FD021F060
:100AE00041D011F043D059F48481F09B03C0082F0A
:100AF0001DD1802F8E5F31D069F5082F2CC0F201F7
:100B00000083B8D0F201018302E025C02630904076
:100B100008F12FD0F9F4BBDFFD0124D039F026D045
:100B200029F01181011711F029D049F71BD011F0DC
:100B30001DD011F4F19A01C0F1982481F09B03C0FB
:100B4000022FF4D0202FFD013181159614D011F41D
:100B50009EDFD5CF00E010E08FCF282F8201D6DEB8
:100B6000002308951181109501170895118113959F
:100B7000FACF30E025E08D01DBDEF2CF10E081819D
:100B800090E001960817190708951A930A931FB762
:100B90005698249806B1037E08B92D981FBF099175
:100BA0001991189549E040938100089548E04093D9
:100BB000810040E040938500409384000895409177
:100BC0006A0340938900409169030DC04091680316
:100BD000409389004091670306C0409166034093AB
:100BE000890040916503409388000895B19ADADF47
:100BF000B19BFECFDBDF3327F099339518E0D2DFCE
:100C0000239A2B98B19AB19BFECF079510F02B98A1
:100C100002C02B9A33951A95A9F70795B19AB19B03
:100C2000FECF30FD02C02B9801C02B9AB19AB19B28
:100C3000FECF2B9A2398B19AB19BFECF88941B9933
:100C4000089480F04FEF000000004A9559F01B997E
:100C5000FACFACDFBBDFB19AA5DFB19BFECFA6DF39
:100C6000AEDFC9CFB19AB19BFECFB19AB19BFECF97
:100C70009DDF08952F931F9320916403FF93EF93BB
:100C80004F9340916103F0916303E09162034B9BAA
:100C90000DC01B9B11C03197D1F74A95A1F7EEEF1C
:100CA000E0936B03E1E4E093DC0406C0EEEFE09335
:100CB0006B03E2E4E093DC044F91EF91FF91332763
:100CC000F099339519E04AE04A95F1F76BDFB19A54
:100CD000B19BFECF44271B9941E0340F889440FD1F
:100CE000089407951A9599F7001FB19AB19BFECF0A
:100CF00030FF2227222339F4B19AB19BFECF56DF71
:100D00001F912F9108952A9551DF67DFB19A4ADF2D
:100D1000B19BFECF4BDF239A2B9851DFB19A42DF74
:100D2000B19BFECF43DF2B9A2398A8CF28E031E078
:100D300003270795111F2A95D9F7012F0895F80168
:100D40002181213668F02581213011F480DD01C038
:100D5000D2DC2DEC33E0EBEAF3E02083318308951D
:100D60000FEF0895FDCF01D8A801EDEDF4E0048167
:100D70000F3621F0013611F00FEF23C005ED13E01F
:100D800062817381060F171F30E007C0DA016D9191
:100D9000AD01D8016D938D0133953217B8F330E072
:100DA0000281172F020F131F028313830481013660
:100DB00039F40281208131810217130709F46DDCB7
:100DC00000E0E4E0E3C7D2DD399A419A96D5789401
:100DD0004CD5FECFC8D72801E2EEF4E005D200845E
:100DE00011842284338484819581A681B78104E1B2
:100DF000401600E05006BCF4082219222A223B22A9
:100E000080959095A095B09584239523A623B7232C
:100E100080299129A229B32987569648AD47B54A1A
:100E20008C019D0136C080019101082719272A27CE
:100E30003B270427152726273727E8E24E16E0E050
:100E40005E062CF40F5514412642314922C0ECE3D2
:100E50004E16E0E05E06CCF48A019B0100291129C0
:100E600022293329082319232A233B2340215121F6
:100E700062217321402B512B622B732B445253441C
:100E8000644E70478A019B0104C00A521E432D49DB
:100E90003543E6E079C761D7EF976597D80182EED1
:100EA00094E07C9160E0F801218100E0060F52811E
:100EB0000381FC010083518322837383FD0134810C
:100EC000658150E0168187809924AA24BB24911E55
:100ED000A61EB31EFC018482158366833783FD0141
:100EE000308520E0618570E0731F128530E0261F99
:100EF000371F438560E070E085D2FC014087118791
:100F000022873387FD0134842224258530E010E0D8
:100F1000331D16843324221E331E078520E030E063
:100F2000111D221D331DFC01048715862686378678
:100F3000FD01308861887724731C1301128843886F
:100F40005524511C0201FC01408A518A628A738A2D
:100F50004080518062807380488259826A827B829D
:100F60008C829D82AE82BF82488759876A877B8741
:100F70000C871D872E873F87088A198A2A8A3B8A11
:100F8000442455242BD1FD01E40FF51F048D158D4C
:100F9000268D378DFE01E40FF51F048B158B268BF4
:100FA000378B01E0400E00E0501E00E1401600E0EB
:100FB000500644F3442455240FE0602E7724642027
:100FC00000E140165704D4F1AE014C5E5F4F062D90
:100FD000000F000F400F571D8E010C5E1F4FE42DB8
:100FE000E350EF70EE0FEE0F0E0F171DF801EAD071
:100FF000E4D00850ECD00080118022803380082497
:1010000019242A243B24D9D00E50E1D0D1D0002578
:10101000112522253325FA01D5D080269126A22636
:10102000B32684019501000F111F221F331F0024D6
:10103000001C002A0082118322833383FC01B8D074
:1010400045E077D68380869486948694802A912E74
:1010500059018201BFDE080D191D2A1D3B1DCFD08D
:10106000D0D1FE01660C660CE60DF71D84889588CC
:10107000A688B788840E951EA61EB71EBAD0008B10
:10108000118B228B338B8FD0048715872687378768
:1010900085D0E0E4702F7E9F42E053D63029FC01DA
:1010A000008711872287338783D0048315832683A3
:1010B000378380829182A282B38201E0400E571C66
:1010C00000E5401657040CF477CF8FD1A401B50189
:1010D00098D1F2D10C811D812E813F81E8D191D12F
:1010E000E1D1088519852A853B8540855185628532
:1010F000738587D140875187628773870C851D85EB
:101100002E853F8571D07DD1448755876687778747
:10111000088919892A893B8973D073D1408B518BF7
:10112000628B738B03810C930281FD010183FC01AF
:101130000181FD010283FC010081FD010383FC01AB
:101140002DD0FD013483258316830783FC012BD02A
:10115000FD0130872187128703874BD0FD0134873B
:101160002587168707874BD0FD01708B618B528BCB
:10117000438B44245524FD0131D0E40FF51F748EB8
:10118000758E768E778E01E0400E571C00E140167A
:1011900057048CF3EF966596ECE0F0C50481158159
:1011A000268137810895008511852285338508952C
:1011B000008111812281338108959E012C5E3F4F71
:1011C000042D089580809180A280B38008950F70CF
:1011D000000F000F200F371DF9010895A201440FE1
:1011E000551F440F551F089544855585668577859D
:1011F0000895FC0104851585268537850895FC0131
:1012000040895189628973890895AFD5F80180E0DA
:1012100090E0DC01A459BC4F0C91DF01A80FB91F6D
:101220000C930196843100E090079CF380E090E0FD
:10123000DF015C96AC01D3DFA40FB51F0D930D93B6
:101240000D930C9301968031900794F3008F018FDA
:10125000028F038F048B058B068B078BE4E096C50A
:1012600078D526972C833D83488359836A837B8373
:10127000D8018E889F88A88CB98CF801008C118CBD
:1012800001E0102222243324C9018A019B01DFD00E
:10129000202D277009F48AC01C2D5881577031F019
:1012A0000C2D452F05D5602F0081A4D048E050E0DB
:1012B00060E070E0402C07E040224419504060405C
:1012C00070402A013B010FEF422FF2D4402F8414CB
:1012D0009506A606B70610F4442D76D04123042FB8
:1012E000422FEBD410E020E030E0680173D086019B
:1012F00020D568017901B3D0000FFD01E00FF21D88
:10130000CCD00C0D1D1D2E1D3F1DC2D07FD0ADD0E9
:101310006CD0040D151D261D371D088319832A83E3
:101320003B834DD08C819D8192D040C01C2D93D0A9
:101330005881577031F0012F452FBAD4602F0C2DF2
:1013400059D008E0402E5524662477244FEF8016AC
:101350009504A504B50418F40FEF48E035D04123F7
:1013600010E01A931A931A934A9334D00991219654
:1013700029913991DED43A932A931A930A936FD024
:10138000111F000F111FFD01E00FF11F09911991AD
:1013900029913991448D558D668D778D32D0448F4A
:1013A000558F668F778F32D060D009D0082D0929EC
:1013B0000A290B2909F0BACF2696E4E1DBC4841888
:1013C0009508A608B7080895481972D4402F24013B
:1013D0003501089543E0002D0F7106950695069599
:1013E000401B440F440F440F0895088119812A813E
:1013F0003B81089510E048E0451B6AD4102F160F7A
:101400000895400F511F621F731F0895FD01008D45
:10141000118D228D338DA801B901440D551D661D16
:10142000771D408F518F628F738F4017510762076E
:10143000730760F404891589268937890F5F1F4F68
:101440002F4F3F4F048B158B268B378B089543E02E
:1014500078D4800F911FFC01C190CF0108958001C5
:10146000910145E06ED4000F0895040C151C261C54
:10147000371C00E0001602E0100600E020063006EF
:1014800031F48D0108DD0024112422243324089531
:10149000048F158F268F378F0895048D158D268D17
:1014A000378D0895448355836683778308954481F7
:1014B0005581668177810895408351836283738368
:1014C00008954BD46497C8012A01480101E0800EB9
:1014D00000E0901E5C0108E1A00E00E0B01E3C019F
:1014E0000AE1600E00E0701EA0E8B3E08E010A5F22
:1014F000B8D0CED094D096D01681FC01E20FF31F65
:10150000428941278FD040839ED0ACF3A2D0BDD07A
:1015100048E050E093018E01045F1F4F44D4012B3B
:1015200039F008E9F201008302E6018302E063C0BA
:1015300076D078D0008011246DD0001A110801E017
:101540000016110671F57FD04CF464D06BD0408149
:10155000041B10400F3F104049F5F5CF60D062D01A
:10156000008153D0AB01A0D36ED0CCF30BEDF201D0
:10157000019300E147D042D059D080D05AD042D018
:1015800055D079D056D0008301E0400E00E0501EC7
:101590005A924A9268D0258118968D0161D704E34A
:1015A0002AC02F5F3F4F263031071CF20CEDF201AD
:1015B00001930EE027D08E010A5F53D059D02FD06F
:1015C00024D03ED016811027F20111932F0138D07C
:1015D000008339D0ACF33DD0228118968D012CD6F2
:1015E0001ED020D00485F2010DD02F5F3F4F283050
:1015F0002DD0BCF300E16496ECE0C0C310E01A9378
:101600000A93089501932F01089561E070E0620F3D
:10161000731F0895FADFAB013BD310E0089520E07B
:1016200030E00895FE01E20FF31F0895FA93EA9364
:101630001AC000E1400E00E0501E00E1F2010895E2
:10164000AB0126D3EFCF2F5F3F4F263000E03007AE
:1016500008958E01045F1F4FD2DFBA92AA928E01C5
:101660000C5F1F4FCCDFBD01685E7F4FA40114C02B
:10167000278107D06DC7248104D0DDC6238101D026
:1016800052C68D01085F1F4F08952181FADFD1C531
:101690002681F7DF5AC75F4FFD01089566D3ACE995
:1016A000B3E056963C91569737FD08C05CDB0F3F80
:1016B00029F40EE10C9302E0559604C000E0549624
:1016C0000C9312960C9398C050D3ACE9B3E0FD0193
:1016D000368937FF1FC0422F8785908936FF11C09A
:1016E000342F4A95332389F0FC010490F8010192CC
:1016F0008F010196F5CFFC013191CF01F8013193B3
:101700008F01342F4A953323B1F7FD018787908BE2
:10171000022F05C0222311F025DB01C000E06CC0C0
:1017200024D3A801ACE9B3E0FD0103890D3209F02F
:1017300061C080E090E8283009F058C0FA010081CB
:10174000007609F04DC08D01075F1F4FFD018187B5
:10175000FA012181222321F4FD01828782E034C035
:10176000253021F42281FD01278B2EC0263019F56A
:1017700090EC2381213021F482E104E310E024C0C5
:10178000223021F482E106E410E01EC02330E1F4AF
:101790002281222321F484E008E510E015C02130E5
:1017A00021F488E10CE510E00FC0223069F48CE2EE
:1017B00004E710E009C0283021F481E0FD018187B1
:1017C00003C02A3009F481E0FD010787108BFA017C
:1017D0000781002359F40681081740F4802F06C0C2
:1017E00086818A01ACDA0F3FC9F790E0FD01848B56
:1017F000968B02C08A0152DFE4E0C8C2B6D22297BB
:101800000BE4ACE9B3E0FD01168910FD03EC139580
:10181000168B0C932489293008F028E00489021BD8
:10182000048B8D010F5F1F4F4FDF802F0930C8F4ED
:10183000402F8D010F5F1F4FF8D10883198390E06F
:10184000FD01E80FF91F018329812283082F0C5F16
:10185000883018F41FEFFD01148BFD01058B2296D3
:10186000CBCF0EE10C9302E0F5CF7FD2ACE9B3E031
:1018700052960C915297202F002371F0235020385C
:1018800038F41D960D911C911E970F5F1F4F48DF76
:1018900000E052960C93529755960C915597002361
:1018A00092F454960C9154970F3F11F0A7DF0BC0A0
:1018B00057960C915797002331F051960C9316963A
:1018C00000E00C93579703B1037019F000E05896AD
:1018D00012C058960C915897002371F404E613B186
:1018E000137051F40A95D9F701E058960C931797A5
:1018F00000E00C9316960C937FCFECE9F3E08F0198
:10190000075E1F4F038714878F010C5D1F4F0587EC
:10191000168700916900036000936900E89A0895B2
:101920000F930FB70F93189BFECF189B06C0189B01
:1019300004C0189B02C0000000C01F933F932F9368
:1019400031E012E003B1102710FD32E0102F3A957C
:10195000C9F700FDE4C003B1102717952FE72795BD
:10196000DF9313B1012707952795CF93C091A70364
:1019700003B11027179527953BE0D3E04F9313B1A0
:101980000127079527954FEF000055C0189BFECF04
:10199000189B06C0189B04C0189B02C0000000C022
:1019A000DF9100C0CDCF13B1137079F1407C2C6F63
:1019B00013C003B1037049F141782C6F15C0037057
:1019C00021F1102F2C6F03B119C003B10370E9F09E
:1019D0004E7F2C6F18C038F303B10370B1F010279D
:1019E00017952795243028F313B1012707952795DC
:1019F000422749934FEF03B1243008F3102717957E
:101A00002795243010F313B11370E1F101270795E6
:101A100027952430F0F003B10370A1F1102717953A
:101A200027952430E0F013B10127079527953A95C3
:101A300041F12430D0F003B1037021F11027179544
:101A400027952430C0F013B101270795279524303E
:101A5000C2CF13B11370B1F04C7F2C6FDCCF03B148
:101A6000037081F0487F2C6FDECF13B1137051F0FB
:101A7000407F2C6FE0CF03B1037021F0407E2C6FCC
:101A8000E2CF3AC03C2FC091A7033C1B01E03330AA
:101A90000CBB90F108811981412F1F772091AD0374
:101AA0000D3271F1013E61F10936B9F0033C11F0DC
:101AB0000B3411F51091F6041123F1F00091AE03EF
:101AC0000030B1F53093AE031093AF030091A9033A
:101AD000C093A9030093A7032EC0121769F4309195
:101AE000B1033F3F29F10FEF0093B103CCE9D3E0FD
:101AF00025C000270093F6044F91CF91DF910FC0CE
:101B00001217B9F70093F6040FEF0093B003009398
:101B1000B1034F91CF910CB300FD38CFDF9101E0BD
:101B20000CBB2F913F911F910F910FBF0F911895F3
:101B3000CCECD3E002C0CBECD3E032E05F9305B154
:101B40000C7F016005B953E014B1136014B920E8AB
:101B50000FC0052710E005B910C0052710E0089454
:101B600005B913C0052710E015C0052710E019C0FE
:101B700020FF052705B9279517951C3F50F720FF33
:101B80000527279505B917951C3F38F720FF05272E
:101B90002795179505B91C3F28F720FF052727959E
:101BA00017951C3F05B908F700C0499120FF05278C
:101BB00005B9279517951C3F48F520FF0527279560
:101BC00005B917951C3F30F520FF05272795179578
:101BD00005B91C3F20F520FF0527279517951C3FC9
:101BE00005B900F5242F3A9519F60C7F5F9105B9D8
:101BF00034E03A95F1F7016014B11C7F05B90C7F10
:101C00004F91CF9114B905B9DF9189CF052710E025
:101C100005B9D1CF052710E0089405B9D4CF052721
:101C200010E0D6CF052710E0DACFE02FF12F0FEF2D
:101C30001FEF61E070EA415070F0219138E0522FBF
:101C4000502716950795269550FF02C0062717279F
:101C50003A95A9F7F0CF0095109508950000889562
:101C6000FECF03E20DBF03E00EBFC0EDD2E099D07E
:101C7000002309F0CDD0A7D8F1DFF0CFF999FECF3E
:101C800008954F5F5F4FFADF41BD52BDF89A089546
:101C9000FADF00B508954F5F5F4F41BD52BDF89424
:101CA000FA9AF99A0FBE08950FB6E8DF00BDF5CF96
:101CB0004A9512F0000FE1F708954A9512F0069543
:101CC000E1F708954A951AF0000F111FFBCF089510
:101CD0004A951AF015950795FBCF08950024112415
:101CE000EFE0001F111F001C111C0416150610F058
:101CF000041A150AEA95AAF7001F111FA001009502
:101D0000109508955195419550400895FF2755230A
:101D100012F4F160F7DF112312F4F09506D0DEDF44
:101D2000F0FD03D0F1FDEECF08951195019510401F
:101D300008954A952AF0000F111F221F331FF9CF73
:101D400008954A952AF03695279517950795F9CF66
:101D50000895FA92EA92DA92CA92BA92AA929A9262
:101D60008A927A926A925A924A92BA93AA939A93D0
:101D70008A930895FF84EE84DD84CC84BB84AA8496
:101D8000998488847F806E805D804C80BB81AA812D
:101D900099818881F0E00FB6F894CE0FDF1F0FBE57
:101DA000089501E00895E1DFD8010AC00C91F9011E
:101DB0001081011759F411962F5F3F4F4150504049
:101DC000042F052B99F700E010E004C010E02081FB
:101DD000021B1040E4E0DACFC8DFD80104C0F901EB
:101DE00061919F016D93BA0141505040672BB9F743
:101DF000E4E0CCCF20E006D0E9F70895259102D0A9
:101E0000E9F708952D9301501040202F212B0895BC
:101E100080EA90E0FC0105911491FC013296A591B5
:101E2000B491FC01349625913491422F432B19F043
:101E3000F901E4DF01C0DEDF069610E08C3A91077D
:101E400048F3089575EFD15C4B8F8F514EF3BCC3AF
:101E5000794A765E7EEC45E000000000000000005C
:101E600000000000000000000000002D9DE9C9C82E
:101E7000EFD5781148231401901F2D493F4C63651D
:101E8000016460EA02F801E802D005016745230118
:101E9000EFCDAB8998BADCFE10325476C3D2E1F0B4
:101EA0004142434445464748AD1B5A159BE86B2CBD
:101EB000A66C7AE40BBA9B9D4148414700000000A4
:101EC0000000000000000000000000000000000012
:101ED000FFFF000000000000000000000000000004
:0D1EE0000000000000000000000000D25AC9
:0400000300000000F9
:00000001FF
